{
  "address": "0x1C935CBe84A4cA69a137eF82AF4f99ee7A359c64",
  "abi": [
    {
      "anonymous": false,
      "inputs": [
        {
          "indexed": true,
          "internalType": "address",
          "name": "sender",
          "type": "address"
        },
        {
          "indexed": false,
          "internalType": "uint256",
          "name": "amount",
          "type": "uint256"
        }
      ],
      "name": "Deposit",
      "type": "event"
    },
    {
      "anonymous": false,
      "inputs": [
        {
          "indexed": true,
          "internalType": "address",
          "name": "client",
          "type": "address"
        },
        {
          "indexed": true,
          "internalType": "address",
          "name": "freelancer",
          "type": "address"
        },
        {
          "indexed": false,
          "internalType": "uint256",
          "name": "milestoneIndex",
          "type": "uint256"
        },
        {
          "indexed": false,
          "internalType": "uint256",
          "name": "amount",
          "type": "uint256"
        }
      ],
      "name": "MilestoneCompleted",
      "type": "event"
    },
    {
      "anonymous": false,
      "inputs": [
        {
          "indexed": true,
          "internalType": "address",
          "name": "client",
          "type": "address"
        },
        {
          "indexed": false,
          "internalType": "uint256",
          "name": "milestoneId",
          "type": "uint256"
        },
        {
          "indexed": false,
          "internalType": "uint256",
          "name": "amount",
          "type": "uint256"
        },
        {
          "indexed": false,
          "internalType": "string",
          "name": "description",
          "type": "string"
        }
      ],
      "name": "MilestoneCreated",
      "type": "event"
    },
    {
      "anonymous": false,
      "inputs": [
        {
          "indexed": true,
          "internalType": "address",
          "name": "recipient",
          "type": "address"
        },
        {
          "indexed": false,
          "internalType": "uint256",
          "name": "amount",
          "type": "uint256"
        }
      ],
      "name": "PaymentProcessed",
      "type": "event"
    },
    {
      "anonymous": false,
      "inputs": [
        {
          "indexed": true,
          "internalType": "address",
          "name": "client",
          "type": "address"
        },
        {
          "indexed": true,
          "internalType": "address",
          "name": "freelancer",
          "type": "address"
        },
        {
          "indexed": false,
          "internalType": "uint256",
          "name": "amount",
          "type": "uint256"
        }
      ],
      "name": "PaymentReleased",
      "type": "event"
    },
    {
      "anonymous": false,
      "inputs": [
        {
          "indexed": true,
          "internalType": "address",
          "name": "client",
          "type": "address"
        },
        {
          "indexed": true,
          "internalType": "address",
          "name": "freelancer",
          "type": "address"
        },
        {
          "indexed": false,
          "internalType": "uint256",
          "name": "amount",
          "type": "uint256"
        }
      ],
      "name": "ProjectCompleted",
      "type": "event"
    },
    {
      "anonymous": false,
      "inputs": [
        {
          "indexed": true,
          "internalType": "address",
          "name": "client",
          "type": "address"
        },
        {
          "indexed": false,
          "internalType": "uint256",
          "name": "amount",
          "type": "uint256"
        },
        {
          "indexed": false,
          "internalType": "string",
          "name": "title",
          "type": "string"
        },
        {
          "indexed": false,
          "internalType": "string",
          "name": "description",
          "type": "string"
        },
        {
          "components": [
            {
              "internalType": "uint256",
              "name": "id",
              "type": "uint256"
            },
            {
              "internalType": "uint256",
              "name": "amount",
              "type": "uint256"
            },
            {
              "internalType": "string",
              "name": "description",
              "type": "string"
            },
            {
              "internalType": "bool",
              "name": "isCompleted",
              "type": "bool"
            }
          ],
          "indexed": false,
          "internalType": "struct Adwumapa.Milestone[]",
          "name": "milestones",
          "type": "tuple[]"
        },
        {
          "indexed": false,
          "internalType": "uint256",
          "name": "startDate",
          "type": "uint256"
        },
        {
          "indexed": false,
          "internalType": "uint256",
          "name": "endDate",
          "type": "uint256"
        },
        {
          "indexed": false,
          "internalType": "string",
          "name": "revisionPolicy",
          "type": "string"
        }
      ],
      "name": "ProjectCreated",
      "type": "event"
    },
    {
      "inputs": [
        {
          "internalType": "address",
          "name": "",
          "type": "address"
        }
      ],
      "name": "clientBalances",
      "outputs": [
        {
          "internalType": "uint256",
          "name": "",
          "type": "uint256"
        }
      ],
      "stateMutability": "view",
      "type": "function"
    },
    {
      "inputs": [
        {
          "internalType": "address",
          "name": "",
          "type": "address"
        }
      ],
      "name": "clientFreelancer",
      "outputs": [
        {
          "internalType": "address",
          "name": "",
          "type": "address"
        }
      ],
      "stateMutability": "view",
      "type": "function"
    },
    {
      "inputs": [
        {
          "internalType": "address",
          "name": "",
          "type": "address"
        },
        {
          "internalType": "uint256",
          "name": "",
          "type": "uint256"
        }
      ],
      "name": "clientMilestones",
      "outputs": [
        {
          "internalType": "uint256",
          "name": "",
          "type": "uint256"
        }
      ],
      "stateMutability": "view",
      "type": "function"
    },
    {
      "inputs": [
        {
          "internalType": "uint256",
          "name": "milestoneIndex",
          "type": "uint256"
        }
      ],
      "name": "completeMilestone",
      "outputs": [],
      "stateMutability": "nonpayable",
      "type": "function"
    },
    {
      "inputs": [],
      "name": "completeProject",
      "outputs": [],
      "stateMutability": "nonpayable",
      "type": "function"
    },
    {
      "inputs": [
        {
          "internalType": "uint256",
          "name": "amount",
          "type": "uint256"
        },
        {
          "internalType": "string",
          "name": "description",
          "type": "string"
        }
      ],
      "name": "createMilestone",
      "outputs": [],
      "stateMutability": "nonpayable",
      "type": "function"
    },
    {
      "inputs": [
        {
          "internalType": "uint256",
          "name": "amount",
          "type": "uint256"
        },
        {
          "internalType": "string",
          "name": "title",
          "type": "string"
        },
        {
          "internalType": "string",
          "name": "description",
          "type": "string"
        },
        {
          "internalType": "uint256",
          "name": "startDate",
          "type": "uint256"
        },
        {
          "internalType": "uint256",
          "name": "endDate",
          "type": "uint256"
        },
        {
          "internalType": "string",
          "name": "revisionPolicy",
          "type": "string"
        }
      ],
      "name": "createProject",
      "outputs": [],
      "stateMutability": "payable",
      "type": "function"
    },
    {
      "inputs": [
        {
          "internalType": "address",
          "name": "freelancer",
          "type": "address"
        }
      ],
      "name": "deposit",
      "outputs": [],
      "stateMutability": "payable",
      "type": "function"
    },
    {
      "inputs": [
        {
          "internalType": "address",
          "name": "",
          "type": "address"
        }
      ],
      "name": "projects",
      "outputs": [
        {
          "internalType": "uint256",
          "name": "amount",
          "type": "uint256"
        },
        {
          "internalType": "string",
          "name": "title",
          "type": "string"
        },
        {
          "internalType": "string",
          "name": "description",
          "type": "string"
        },
        {
          "internalType": "uint256",
          "name": "startDate",
          "type": "uint256"
        },
        {
          "internalType": "uint256",
          "name": "endDate",
          "type": "uint256"
        },
        {
          "internalType": "string",
          "name": "revisionPolicy",
          "type": "string"
        }
      ],
      "stateMutability": "view",
      "type": "function"
    },
    {
      "inputs": [
        {
          "internalType": "address",
          "name": "freelancer",
          "type": "address"
        },
        {
          "internalType": "uint256",
          "name": "amount",
          "type": "uint256"
        }
      ],
      "name": "releasePayment",
      "outputs": [],
      "stateMutability": "nonpayable",
      "type": "function"
    }
  ],
  "transactionHash": "0xab2836c935029084e82d6d5eb1779960e7d33dacf9e1147d83064511f55dae8c",
  "args": [],
  "numDeployments": 1,
  "solcInputHash": "ab54ae2392e4c26a52fdf5c7a14fd7b0",
  "bytecode": "0x608060405234801561001057600080fd5b5060016000556114ad806100256000396000f3fe6080604052600436106100915760003560e01c80638c6e9d1c116100595780638c6e9d1c146101505780638dd8dd921461017d578063966ecf3b146101cb578063f340fa01146101eb578063fc0e9739146101fe57600080fd5b806344d0be64146100965780635aaa1ee2146100b85780636dfef3cd146100eb578063840e78fd146100fe578063852ea20314610130575b600080fd5b3480156100a257600080fd5b506100b66100b1366004610eda565b610213565b005b3480156100c457600080fd5b506100d86100d3366004610f3d565b6104b4565b6040519081526020015b60405180910390f35b6100b66100f9366004610f67565b6104e5565b34801561010a57600080fd5b5061011e61011936600461100b565b61063c565b6040516100e296959493929190611073565b34801561013c57600080fd5b506100b661014b3660046110cb565b610808565b34801561015c57600080fd5b506100d861016b36600461100b565b60026020526000908152604090205481565b34801561018957600080fd5b506101b361019836600461100b565b6003602052600090815260409020546001600160a01b031681565b6040516001600160a01b0390911681526020016100e2565b3480156101d757600080fd5b506100b66101e6366004610f3d565b6109da565b6100b66101f936600461100b565b610b57565b34801561020a57600080fd5b506100b6610c5f565b6000821161023c5760405162461bcd60e51b8152600401610233906110e4565b60405180910390fd5b336000908152600360205260409020546001600160a01b03166102715760405162461bcd60e51b81526004016102339061111b565b336000908152600160205260409020546102cd5760405162461bcd60e51b815260206004820181905260248201527f4e6f2070726f6a65637420666f756e6420666f72207468697320636c69656e746044820152606401610233565b336000908152600160205260409020805461032a5760405162461bcd60e51b815260206004820181905260248201527f4e6f2070726f6a65637420666f756e6420666f72207468697320636c69656e746044820152606401610233565b6000805b60038301548110156103805782600301818154811061034f5761034f61114b565b9060005260206000209060040201600101548261036c9190611177565b91508061037881611190565b91505061032e565b50815461038d8583611177565b11156103f15760405162461bcd60e51b815260206004820152602d60248201527f546f74616c206d696c6573746f6e6520616d6f756e747320657863656564207060448201526c1c9bda9958dd08185b5bdd5b9d609a1b6064820152608401610233565b604080516080810182526003840180548083526020808401898152948401888152600060608601819052600180850186559481529190912084516004909302019182559351918101919091559151909182916002820190610452908261122e565b50606091909101516003909101805460ff1916911515919091179055805160405133917f224ac17b3eb418fb512ed55f6ddb93018074c71f4ad405edb692c5c343b36801916104a59190899089906112ee565b60405180910390a25050505050565b600460205281600052604060002081815481106104d057600080fd5b90600052602060002001600091509150505481565b6104ed610dde565b6000861161050d5760405162461bcd60e51b8152600401610233906110e4565b85341461056d5760405162461bcd60e51b815260206004820152602860248201527f53656e742076616c7565206d757374206d61746368207468652070726f6a65636044820152671d08185b5bdd5b9d60c21b6064820152608401610233565b33600090815260016020819052604090912087815590810161058f878261122e565b506002810161059e868261122e565b506004810184905560058101839055600681016105bb838261122e565b5033600090815260026020526040812080543492906105db908490611177565b909155505060405133907f454794df74cba82d4b95bccb1ed5e68c95e5d4264354a28e84d94dca0eb4f32790610621908a908a908a9060038801908b908b908b90611316565b60405180910390a2506106346001600055565b505050505050565b60016020819052600091825260409091208054918101805461065d906111a9565b80601f0160208091040260200160405190810160405280929190818152602001828054610689906111a9565b80156106d65780601f106106ab576101008083540402835291602001916106d6565b820191906000526020600020905b8154815290600101906020018083116106b957829003601f168201915b5050505050908060020180546106eb906111a9565b80601f0160208091040260200160405190810160405280929190818152602001828054610717906111a9565b80156107645780601f1061073957610100808354040283529160200191610764565b820191906000526020600020905b81548152906001019060200180831161074757829003601f168201915b505050505090806004015490806005015490806006018054610785906111a9565b80601f01602080910402602001604051908101604052809291908181526020018280546107b1906111a9565b80156107fe5780601f106107d3576101008083540402835291602001916107fe565b820191906000526020600020905b8154815290600101906020018083116107e157829003601f168201915b5050505050905086565b610810610dde565b336000908152600360209081526040808320546004909252822080546001600160a01b039092169291849081106108495761084961114b565b60009182526020909120015490506001600160a01b03821661087d5760405162461bcd60e51b81526004016102339061111b565b3360009081526004602052604090205483106108db5760405162461bcd60e51b815260206004820152601760248201527f496e76616c6964206d696c6573746f6e6520696e6465780000000000000000006044820152606401610233565b600081116109215760405162461bcd60e51b81526020600482015260136024820152724e6f2066756e647320746f2072656c6561736560681b6044820152606401610233565b3360009081526004602052604081208054859081106109425761094261114b565b60009182526020822001919091556040516001600160a01b0384169183156108fc02918491818181858888f19350505050158015610984573d6000803e3d6000fd5b5060408051848152602081018390526001600160a01b0384169133917f517f5c7800b3ad7869f5240382ff5b27b4fb43c488aad1fe3874fa19b62fb0cc910160405180910390a350506109d76001600055565b50565b6109e2610dde565b6001600160a01b038216610a385760405162461bcd60e51b815260206004820152601a60248201527f496e76616c696420667265656c616e63657220616464726573730000000000006044820152606401610233565b60008111610a585760405162461bcd60e51b8152600401610233906110e4565b33600090815260026020526040902054811115610aae5760405162461bcd60e51b8152602060048201526014602482015273496e73756666696369656e742062616c616e636560601b6044820152606401610233565b3360009081526002602052604081208054839290610acd908490611464565b90915550506040516001600160a01b0383169082156108fc029083906000818181858888f19350505050158015610b08573d6000803e3d6000fd5b506040518181526001600160a01b0383169033907f8ac5b3c2902b21b6bbb4d99ec195e28a242cb6a1777804db10b84d91e20064299060200160405180910390a3610b536001600055565b5050565b610b5f610dde565b60003411610b7f5760405162461bcd60e51b8152600401610233906110e4565b6001600160a01b038116610bd55760405162461bcd60e51b815260206004820152601a60248201527f496e76616c696420667265656c616e63657220616464726573730000000000006044820152606401610233565b3360009081526002602052604081208054349290610bf4908490611177565b90915550503360008181526003602090815260409182902080546001600160a01b0319166001600160a01b03861617905590513481527fe1fffcc4923d04b559f4d29a8bfc6cda04eb5b0d3c460751c2402c5c5cc9109c910160405180910390a26109d76001600055565b610c67610dde565b336000908152600360209081526040808320546002909252909120546001600160a01b039091169081610cac5760405162461bcd60e51b81526004016102339061111b565b60008111610cf25760405162461bcd60e51b81526020600482015260136024820152724e6f2066756e647320746f2072656c6561736560681b6044820152606401610233565b336000908152600260209081526040808320839055600390915280822080546001600160a01b0319169055516001600160a01b0384169183156108fc02918491818181858888f19350505050158015610d4f573d6000803e3d6000fd5b506040518181526001600160a01b0383169033907f7fe4ff85792773156f00cea852020ab4b0005d70bd4231011a3b34dc519359109060200160405180910390a36040518181526001600160a01b0383169033907f8ac5b3c2902b21b6bbb4d99ec195e28a242cb6a1777804db10b84d91e20064299060200160405180910390a35050610ddc6001600055565b565b600260005403610e305760405162461bcd60e51b815260206004820152601f60248201527f5265656e7472616e637947756172643a207265656e7472616e742063616c6c006044820152606401610233565b6002600055565b634e487b7160e01b600052604160045260246000fd5b600082601f830112610e5e57600080fd5b813567ffffffffffffffff80821115610e7957610e79610e37565b604051601f8301601f19908116603f01168101908282118183101715610ea157610ea1610e37565b81604052838152866020858801011115610eba57600080fd5b836020870160208301376000602085830101528094505050505092915050565b60008060408385031215610eed57600080fd5b82359150602083013567ffffffffffffffff811115610f0b57600080fd5b610f1785828601610e4d565b9150509250929050565b80356001600160a01b0381168114610f3857600080fd5b919050565b60008060408385031215610f5057600080fd5b610f5983610f21565b946020939093013593505050565b60008060008060008060c08789031215610f8057600080fd5b86359550602087013567ffffffffffffffff80821115610f9f57600080fd5b610fab8a838b01610e4d565b96506040890135915080821115610fc157600080fd5b610fcd8a838b01610e4d565b9550606089013594506080890135935060a0890135915080821115610ff157600080fd5b50610ffe89828a01610e4d565b9150509295509295509295565b60006020828403121561101d57600080fd5b61102682610f21565b9392505050565b6000815180845260005b8181101561105357602081850181015186830182015201611037565b506000602082860101526020601f19601f83011685010191505092915050565b86815260c06020820152600061108c60c083018861102d565b828103604084015261109e818861102d565b905085606084015284608084015282810360a08401526110be818561102d565b9998505050505050505050565b6000602082840312156110dd57600080fd5b5035919050565b6020808252601d908201527f416d6f756e74206d7573742062652067726561746572207468616e2030000000604082015260600190565b602080825260169082015275139bc8199c99595b185b98d95c88185cdcda59db995960521b604082015260600190565b634e487b7160e01b600052603260045260246000fd5b634e487b7160e01b600052601160045260246000fd5b8082018082111561118a5761118a611161565b92915050565b6000600182016111a2576111a2611161565b5060010190565b600181811c908216806111bd57607f821691505b6020821081036111dd57634e487b7160e01b600052602260045260246000fd5b50919050565b601f82111561122957600081815260208120601f850160051c8101602086101561120a5750805b601f850160051c820191505b8181101561063457828155600101611216565b505050565b815167ffffffffffffffff81111561124857611248610e37565b61125c8161125684546111a9565b846111e3565b602080601f83116001811461129157600084156112795750858301515b600019600386901b1c1916600185901b178555610634565b600085815260208120601f198616915b828110156112c0578886015182559484019460019091019084016112a1565b50858210156112de5787850151600019600388901b60f8161c191681555b5050505050600190811b01905550565b83815282602082015260606040820152600061130d606083018461102d565b95945050505050565b8781526000602060e08184015261133060e084018a61102d565b8381036040850152611342818a61102d565b905083810360608501528088548083528383019150838160051b84010160008b8152858120815b8481101561143157601f1987850301865281548452600182015488850152600282016080604086015283815461139e816111a9565b80608089015260a060018316600081146113bf57600181146113d957611406565b60ff1984168a83015282151560051b8a0182019450611406565b8589528d8920895b848110156113fe5781548c82018501526001909101908f016113e1565b8b0183019550505b50505050600384015460ff161515606096909601959095525094870194600490910190600101611369565b5050508960808801528860a088015286810360c0880152611452818961102d565b9e9d5050505050505050505050505050565b8181038181111561118a5761118a61116156fea26469706673582212204c49156ebb83601c00937d072f9424839e5374f27ed466c300b4ff3e9638827664736f6c63430008150033",
  "devdoc": {
    "kind": "dev",
    "methods": {},
    "version": 1
  },
  "userdoc": {
    "kind": "user",
    "methods": {},
    "version": 1
  },
  "storageLayout": {
    "storage": [
      {
        "astId": 123,
        "contract": "contracts/adwumapa.sol:Adwumapa",
        "label": "_status",
        "offset": 0,
        "slot": "0",
        "type": "t_uint256"
      },
      {
        "astId": 914,
        "contract": "contracts/adwumapa.sol:Adwumapa",
        "label": "projects",
        "offset": 0,
        "slot": "1",
        "type": "t_mapping(t_address,t_struct(Project)909_storage)"
      },
      {
        "astId": 986,
        "contract": "contracts/adwumapa.sol:Adwumapa",
        "label": "clientBalances",
        "offset": 0,
        "slot": "2",
        "type": "t_mapping(t_address,t_uint256)"
      },
      {
        "astId": 990,
        "contract": "contracts/adwumapa.sol:Adwumapa",
        "label": "clientFreelancer",
        "offset": 0,
        "slot": "3",
        "type": "t_mapping(t_address,t_address)"
      },
      {
        "astId": 995,
        "contract": "contracts/adwumapa.sol:Adwumapa",
        "label": "clientMilestones",
        "offset": 0,
        "slot": "4",
        "type": "t_mapping(t_address,t_array(t_uint256)dyn_storage)"
      }
    ],
    "types": {
      "t_address": {
        "encoding": "inplace",
        "label": "address",
        "numberOfBytes": "20"
      },
      "t_array(t_struct(Milestone)892_storage)dyn_storage": {
        "base": "t_struct(Milestone)892_storage",
        "encoding": "dynamic_array",
        "label": "struct Adwumapa.Milestone[]",
        "numberOfBytes": "32"
      },
      "t_array(t_uint256)dyn_storage": {
        "base": "t_uint256",
        "encoding": "dynamic_array",
        "label": "uint256[]",
        "numberOfBytes": "32"
      },
      "t_bool": {
        "encoding": "inplace",
        "label": "bool",
        "numberOfBytes": "1"
      },
      "t_mapping(t_address,t_address)": {
        "encoding": "mapping",
        "key": "t_address",
        "label": "mapping(address => address)",
        "numberOfBytes": "32",
        "value": "t_address"
      },
      "t_mapping(t_address,t_array(t_uint256)dyn_storage)": {
        "encoding": "mapping",
        "key": "t_address",
        "label": "mapping(address => uint256[])",
        "numberOfBytes": "32",
        "value": "t_array(t_uint256)dyn_storage"
      },
      "t_mapping(t_address,t_struct(Project)909_storage)": {
        "encoding": "mapping",
        "key": "t_address",
        "label": "mapping(address => struct Adwumapa.Project)",
        "numberOfBytes": "32",
        "value": "t_struct(Project)909_storage"
      },
      "t_mapping(t_address,t_uint256)": {
        "encoding": "mapping",
        "key": "t_address",
        "label": "mapping(address => uint256)",
        "numberOfBytes": "32",
        "value": "t_uint256"
      },
      "t_string_storage": {
        "encoding": "bytes",
        "label": "string",
        "numberOfBytes": "32"
      },
      "t_struct(Milestone)892_storage": {
        "encoding": "inplace",
        "label": "struct Adwumapa.Milestone",
        "members": [
          {
            "astId": 885,
            "contract": "contracts/adwumapa.sol:Adwumapa",
            "label": "id",
            "offset": 0,
            "slot": "0",
            "type": "t_uint256"
          },
          {
            "astId": 887,
            "contract": "contracts/adwumapa.sol:Adwumapa",
            "label": "amount",
            "offset": 0,
            "slot": "1",
            "type": "t_uint256"
          },
          {
            "astId": 889,
            "contract": "contracts/adwumapa.sol:Adwumapa",
            "label": "description",
            "offset": 0,
            "slot": "2",
            "type": "t_string_storage"
          },
          {
            "astId": 891,
            "contract": "contracts/adwumapa.sol:Adwumapa",
            "label": "isCompleted",
            "offset": 0,
            "slot": "3",
            "type": "t_bool"
          }
        ],
        "numberOfBytes": "128"
      },
      "t_struct(Project)909_storage": {
        "encoding": "inplace",
        "label": "struct Adwumapa.Project",
        "members": [
          {
            "astId": 894,
            "contract": "contracts/adwumapa.sol:Adwumapa",
            "label": "amount",
            "offset": 0,
            "slot": "0",
            "type": "t_uint256"
          },
          {
            "astId": 896,
            "contract": "contracts/adwumapa.sol:Adwumapa",
            "label": "title",
            "offset": 0,
            "slot": "1",
            "type": "t_string_storage"
          },
          {
            "astId": 898,
            "contract": "contracts/adwumapa.sol:Adwumapa",
            "label": "description",
            "offset": 0,
            "slot": "2",
            "type": "t_string_storage"
          },
          {
            "astId": 902,
            "contract": "contracts/adwumapa.sol:Adwumapa",
            "label": "milestones",
            "offset": 0,
            "slot": "3",
            "type": "t_array(t_struct(Milestone)892_storage)dyn_storage"
          },
          {
            "astId": 904,
            "contract": "contracts/adwumapa.sol:Adwumapa",
            "label": "startDate",
            "offset": 0,
            "slot": "4",
            "type": "t_uint256"
          },
          {
            "astId": 906,
            "contract": "contracts/adwumapa.sol:Adwumapa",
            "label": "endDate",
            "offset": 0,
            "slot": "5",
            "type": "t_uint256"
          },
          {
            "astId": 908,
            "contract": "contracts/adwumapa.sol:Adwumapa",
            "label": "revisionPolicy",
            "offset": 0,
            "slot": "6",
            "type": "t_string_storage"
          }
        ],
        "numberOfBytes": "224"
      },
      "t_uint256": {
        "encoding": "inplace",
        "label": "uint256",
        "numberOfBytes": "32"
      }
    }
  }
}