{
  "address": "0x1b59e489D5A8F9a4148091a3eAF9a515A93574a8",
  "abi": [
    {
      "anonymous": false,
      "inputs": [
        {
          "indexed": true,
          "internalType": "address",
          "name": "sender",
          "type": "address"
        },
        {
          "indexed": false,
          "internalType": "uint256",
          "name": "amount",
          "type": "uint256"
        }
      ],
      "name": "Deposit",
      "type": "event"
    },
    {
      "anonymous": false,
      "inputs": [
        {
          "indexed": true,
          "internalType": "address",
          "name": "client",
          "type": "address"
        },
        {
          "indexed": true,
          "internalType": "address",
          "name": "freelancer",
          "type": "address"
        },
        {
          "indexed": false,
          "internalType": "uint256",
          "name": "milestoneIndex",
          "type": "uint256"
        },
        {
          "indexed": false,
          "internalType": "uint256",
          "name": "amount",
          "type": "uint256"
        }
      ],
      "name": "MilestoneCompleted",
      "type": "event"
    },
    {
      "anonymous": false,
      "inputs": [
        {
          "indexed": true,
          "internalType": "address",
          "name": "client",
          "type": "address"
        },
        {
          "indexed": false,
          "internalType": "uint256",
          "name": "milestoneId",
          "type": "uint256"
        },
        {
          "indexed": false,
          "internalType": "uint256",
          "name": "amount",
          "type": "uint256"
        },
        {
          "indexed": false,
          "internalType": "string",
          "name": "description",
          "type": "string"
        }
      ],
      "name": "MilestoneCreated",
      "type": "event"
    },
    {
      "anonymous": false,
      "inputs": [
        {
          "indexed": true,
          "internalType": "address",
          "name": "recipient",
          "type": "address"
        },
        {
          "indexed": false,
          "internalType": "uint256",
          "name": "amount",
          "type": "uint256"
        }
      ],
      "name": "PaymentProcessed",
      "type": "event"
    },
    {
      "anonymous": false,
      "inputs": [
        {
          "indexed": true,
          "internalType": "address",
          "name": "client",
          "type": "address"
        },
        {
          "indexed": true,
          "internalType": "address",
          "name": "freelancer",
          "type": "address"
        },
        {
          "indexed": false,
          "internalType": "uint256",
          "name": "amount",
          "type": "uint256"
        }
      ],
      "name": "PaymentReleased",
      "type": "event"
    },
    {
      "anonymous": false,
      "inputs": [
        {
          "indexed": true,
          "internalType": "address",
          "name": "client",
          "type": "address"
        },
        {
          "indexed": true,
          "internalType": "address",
          "name": "freelancer",
          "type": "address"
        },
        {
          "indexed": false,
          "internalType": "uint256",
          "name": "amount",
          "type": "uint256"
        }
      ],
      "name": "ProjectCompleted",
      "type": "event"
    },
    {
      "anonymous": false,
      "inputs": [
        {
          "indexed": true,
          "internalType": "address",
          "name": "client",
          "type": "address"
        },
        {
          "indexed": false,
          "internalType": "uint256",
          "name": "amount",
          "type": "uint256"
        },
        {
          "indexed": false,
          "internalType": "string",
          "name": "title",
          "type": "string"
        },
        {
          "indexed": false,
          "internalType": "string",
          "name": "description",
          "type": "string"
        },
        {
          "components": [
            {
              "internalType": "uint256",
              "name": "id",
              "type": "uint256"
            },
            {
              "internalType": "uint256",
              "name": "amount",
              "type": "uint256"
            },
            {
              "internalType": "string",
              "name": "description",
              "type": "string"
            },
            {
              "internalType": "bool",
              "name": "isCompleted",
              "type": "bool"
            }
          ],
          "indexed": false,
          "internalType": "struct Adwumapa.Milestone[]",
          "name": "milestones",
          "type": "tuple[]"
        },
        {
          "indexed": false,
          "internalType": "uint256",
          "name": "startDate",
          "type": "uint256"
        },
        {
          "indexed": false,
          "internalType": "uint256",
          "name": "endDate",
          "type": "uint256"
        },
        {
          "indexed": false,
          "internalType": "string",
          "name": "revisionPolicy",
          "type": "string"
        }
      ],
      "name": "ProjectCreated",
      "type": "event"
    },
    {
      "inputs": [
        {
          "internalType": "address",
          "name": "",
          "type": "address"
        }
      ],
      "name": "clientBalances",
      "outputs": [
        {
          "internalType": "uint256",
          "name": "",
          "type": "uint256"
        }
      ],
      "stateMutability": "view",
      "type": "function"
    },
    {
      "inputs": [
        {
          "internalType": "address",
          "name": "",
          "type": "address"
        }
      ],
      "name": "clientFreelancer",
      "outputs": [
        {
          "internalType": "address",
          "name": "",
          "type": "address"
        }
      ],
      "stateMutability": "view",
      "type": "function"
    },
    {
      "inputs": [
        {
          "internalType": "address",
          "name": "",
          "type": "address"
        },
        {
          "internalType": "uint256",
          "name": "",
          "type": "uint256"
        }
      ],
      "name": "clientMilestones",
      "outputs": [
        {
          "internalType": "uint256",
          "name": "",
          "type": "uint256"
        }
      ],
      "stateMutability": "view",
      "type": "function"
    },
    {
      "inputs": [
        {
          "internalType": "uint256",
          "name": "milestoneIndex",
          "type": "uint256"
        }
      ],
      "name": "completeMilestone",
      "outputs": [],
      "stateMutability": "nonpayable",
      "type": "function"
    },
    {
      "inputs": [],
      "name": "completeMilestones",
      "outputs": [],
      "stateMutability": "nonpayable",
      "type": "function"
    },
    {
      "inputs": [],
      "name": "completeProject",
      "outputs": [],
      "stateMutability": "nonpayable",
      "type": "function"
    },
    {
      "inputs": [
        {
          "internalType": "uint256",
          "name": "amount",
          "type": "uint256"
        },
        {
          "internalType": "string",
          "name": "description",
          "type": "string"
        }
      ],
      "name": "createMilestone",
      "outputs": [],
      "stateMutability": "nonpayable",
      "type": "function"
    },
    {
      "inputs": [
        {
          "internalType": "uint256",
          "name": "amount",
          "type": "uint256"
        },
        {
          "internalType": "string",
          "name": "title",
          "type": "string"
        },
        {
          "internalType": "string",
          "name": "description",
          "type": "string"
        },
        {
          "internalType": "uint256",
          "name": "startDate",
          "type": "uint256"
        },
        {
          "internalType": "uint256",
          "name": "endDate",
          "type": "uint256"
        },
        {
          "internalType": "string",
          "name": "revisionPolicy",
          "type": "string"
        }
      ],
      "name": "createProject",
      "outputs": [],
      "stateMutability": "payable",
      "type": "function"
    },
    {
      "inputs": [
        {
          "internalType": "address",
          "name": "freelancer",
          "type": "address"
        }
      ],
      "name": "deposit",
      "outputs": [],
      "stateMutability": "payable",
      "type": "function"
    },
    {
      "inputs": [
        {
          "internalType": "address",
          "name": "",
          "type": "address"
        }
      ],
      "name": "projects",
      "outputs": [
        {
          "internalType": "uint256",
          "name": "amount",
          "type": "uint256"
        },
        {
          "internalType": "string",
          "name": "title",
          "type": "string"
        },
        {
          "internalType": "string",
          "name": "description",
          "type": "string"
        },
        {
          "internalType": "uint256",
          "name": "startDate",
          "type": "uint256"
        },
        {
          "internalType": "uint256",
          "name": "endDate",
          "type": "uint256"
        },
        {
          "internalType": "string",
          "name": "revisionPolicy",
          "type": "string"
        }
      ],
      "stateMutability": "view",
      "type": "function"
    },
    {
      "inputs": [
        {
          "internalType": "address",
          "name": "freelancer",
          "type": "address"
        },
        {
          "internalType": "uint256",
          "name": "amount",
          "type": "uint256"
        }
      ],
      "name": "releasePayment",
      "outputs": [],
      "stateMutability": "nonpayable",
      "type": "function"
    }
  ],
  "transactionHash": "0xcd90133cd78c6ee31fdc2bb6ae932d2ad7c4c590e634c65edc4c3df4503b88e1",
  "args": [],
  "numDeployments": 6,
  "solcInputHash": "2309b87480d8d5a6ea8b4c73ff00a7ee",
  "bytecode": "0x608060405234801561001057600080fd5b5060016000556116d5806100256000396000f3fe60806040526004361061009c5760003560e01c8063852ea20311610064578063852ea203146101505780638c6e9d1c146101705780638dd8dd921461019d578063966ecf3b146101eb578063f340fa011461020b578063fc0e97391461021e57600080fd5b8063183cb195146100a157806344d0be64146100b85780635aaa1ee2146100d85780636dfef3cd1461010b578063840e78fd1461011e575b600080fd5b3480156100ad57600080fd5b506100b6610233565b005b3480156100c457600080fd5b506100b66100d3366004611132565b6104d6565b3480156100e457600080fd5b506100f86100f3366004611195565b6106ee565b6040519081526020015b60405180910390f35b6100b66101193660046111bf565b61071f565b34801561012a57600080fd5b5061013e610139366004611263565b610816565b604051610102969594939291906112cb565b34801561015c57600080fd5b506100b661016b366004611323565b6109e2565b34801561017c57600080fd5b506100f861018b366004611263565b60026020526000908152604090205481565b3480156101a957600080fd5b506101d36101b8366004611263565b6003602052600090815260409020546001600160a01b031681565b6040516001600160a01b039091168152602001610102565b3480156101f757600080fd5b506100b6610206366004611195565b610c0b565b6100b6610219366004611263565b610d88565b34801561022a57600080fd5b506100b6610e90565b61023b611036565b3360009081526003602090815260408083205460019092529091206001600160a01b0390911690816102ad5760405162461bcd60e51b8152602060048201526016602482015275139bc8199c99595b185b98d95c88185cdcda59db995960521b60448201526064015b60405180910390fd5b80546102fb5760405162461bcd60e51b815260206004820181905260248201527f4e6f2070726f6a65637420666f756e6420666f72207468697320636c69656e7460448201526064016102a4565b6000805b60038301548110156104095760008360030182815481106103225761032261133c565b60009182526020909120600490910201600381015490915060ff16801561035c575060018101543360009081526002602052604090205410155b156103f65760018101543360009081526002602052604081208054909190610385908490611368565b909155505060018101546103999084611381565b9250846001600160a01b0316336001600160a01b03167f517f5c7800b3ad7869f5240382ff5b27b4fb43c488aad1fe3874fa19b62fb0cc8484600101546040516103ed929190918252602082015260400190565b60405180910390a35b508061040181611394565b9150506102ff565b50600081116104505760405162461bcd60e51b81526020600482015260136024820152724e6f2066756e647320746f2072656c6561736560681b60448201526064016102a4565b6040516001600160a01b0384169082156108fc029083906000818181858888f19350505050158015610486573d6000803e3d6000fd5b506040518181526001600160a01b0384169033907f8ac5b3c2902b21b6bbb4d99ec195e28a242cb6a1777804db10b84d91e20064299060200160405180910390a35050506104d46001600055565b565b600082116104f65760405162461bcd60e51b81526004016102a4906113ad565b336000908152600160205260409020546105525760405162461bcd60e51b815260206004820181905260248201527f4e6f2070726f6a65637420666f756e6420666f72207468697320636c69656e7460448201526064016102a4565b33600090815260016020526040812090805b60038301548110156105b6578260030181815481106105855761058561133c565b906000526020600020906004020160010154826105a29190611381565b9150806105ae81611394565b915050610564565b5081546105c38583611381565b11156106275760405162461bcd60e51b815260206004820152602d60248201527f546f74616c206d696c6573746f6e6520616d6f756e747320657863656564207060448201526c1c9bda9958dd08185b5bdd5b9d609a1b60648201526084016102a4565b60038201805460408051608081018252828152602080820189815292820188815260006060840181905260018087018855968152919091208251600486029091019081559251948301949094559251919291829190600282019061068b9082611469565b50606091909101516003909101805460ff1916911515919091179055805160405133917f224ac17b3eb418fb512ed55f6ddb93018074c71f4ad405edb692c5c343b36801916106de91908a908a90611529565b60405180910390a2505050505050565b6004602052816000526040600020818154811061070a57600080fd5b90600052602060002001600091509150505481565b610727611036565b600086116107475760405162461bcd60e51b81526004016102a4906113ad565b3360009081526001602081905260409091208781559081016107698782611469565b50600281016107788682611469565b506004810184905560058101839055600681016107958382611469565b5033600090815260026020526040812080543492906107b5908490611381565b909155505060405133907f454794df74cba82d4b95bccb1ed5e68c95e5d4264354a28e84d94dca0eb4f327906107fb908a908a908a9060038801908b908b908b90611551565b60405180910390a25061080e6001600055565b505050505050565b600160208190526000918252604090912080549181018054610837906113e4565b80601f0160208091040260200160405190810160405280929190818152602001828054610863906113e4565b80156108b05780601f10610885576101008083540402835291602001916108b0565b820191906000526020600020905b81548152906001019060200180831161089357829003601f168201915b5050505050908060020180546108c5906113e4565b80601f01602080910402602001604051908101604052809291908181526020018280546108f1906113e4565b801561093e5780601f106109135761010080835404028352916020019161093e565b820191906000526020600020905b81548152906001019060200180831161092157829003601f168201915b50505050509080600401549080600501549080600601805461095f906113e4565b80601f016020809104026020016040519081016040528092919081815260200182805461098b906113e4565b80156109d85780601f106109ad576101008083540402835291602001916109d8565b820191906000526020600020905b8154815290600101906020018083116109bb57829003601f168201915b5050505050905086565b6109ea611036565b336000908152600360208181526040808420546001909252909220908101546001600160a01b03909216918310610a635760405162461bcd60e51b815260206004820152601760248201527f496e76616c6964206d696c6573746f6e6520696e64657800000000000000000060448201526064016102a4565b6000816003018481548110610a7a57610a7a61133c565b60009182526020909120600490910201600381015490915060ff1615610ae25760405162461bcd60e51b815260206004820152601b60248201527f4d696c6573746f6e6520616c726561647920636f6d706c65746564000000000060448201526064016102a4565b6001810154336000908152600260205260409020541015610b3c5760405162461bcd60e51b8152602060048201526014602482015273496e73756666696369656e742062616c616e636560601b60448201526064016102a4565b60038101805460ff191660019081179091558101543360009081526002602052604081208054909190610b70908490611368565b909155505060018101546040516001600160a01b0385169180156108fc02916000818181858888f19350505050158015610bae573d6000803e3d6000fd5b5060018101546040805186815260208101929092526001600160a01b0385169133917f517f5c7800b3ad7869f5240382ff5b27b4fb43c488aad1fe3874fa19b62fb0cc910160405180910390a3505050610c086001600055565b50565b610c13611036565b6001600160a01b038216610c695760405162461bcd60e51b815260206004820152601a60248201527f496e76616c696420667265656c616e636572206164647265737300000000000060448201526064016102a4565b60008111610c895760405162461bcd60e51b81526004016102a4906113ad565b33600090815260026020526040902054811115610cdf5760405162461bcd60e51b8152602060048201526014602482015273496e73756666696369656e742062616c616e636560601b60448201526064016102a4565b3360009081526002602052604081208054839290610cfe908490611368565b90915550506040516001600160a01b0383169082156108fc029083906000818181858888f19350505050158015610d39573d6000803e3d6000fd5b506040518181526001600160a01b0383169033907f8ac5b3c2902b21b6bbb4d99ec195e28a242cb6a1777804db10b84d91e20064299060200160405180910390a3610d846001600055565b5050565b610d90611036565b60003411610db05760405162461bcd60e51b81526004016102a4906113ad565b6001600160a01b038116610e065760405162461bcd60e51b815260206004820152601a60248201527f496e76616c696420667265656c616e636572206164647265737300000000000060448201526064016102a4565b3360009081526002602052604081208054349290610e25908490611381565b90915550503360008181526003602090815260409182902080546001600160a01b0319166001600160a01b03861617905590513481527fe1fffcc4923d04b559f4d29a8bfc6cda04eb5b0d3c460751c2402c5c5cc9109c910160405180910390a2610c086001600055565b610e98611036565b336000908152600360209081526040808320546002909252909120546001600160a01b039091169081610f065760405162461bcd60e51b8152602060048201526016602482015275139bc8199c99595b185b98d95c88185cdcda59db995960521b60448201526064016102a4565b60008111610f4c5760405162461bcd60e51b81526020600482015260136024820152724e6f2066756e647320746f2072656c6561736560681b60448201526064016102a4565b336000908152600260209081526040808320839055600390915280822080546001600160a01b0319169055516001600160a01b0384169183156108fc02918491818181858888f19350505050158015610fa9573d6000803e3d6000fd5b506040518181526001600160a01b0383169033907f7fe4ff85792773156f00cea852020ab4b0005d70bd4231011a3b34dc519359109060200160405180910390a36040518181526001600160a01b0383169033907f8ac5b3c2902b21b6bbb4d99ec195e28a242cb6a1777804db10b84d91e20064299060200160405180910390a350506104d46001600055565b6002600054036110885760405162461bcd60e51b815260206004820152601f60248201527f5265656e7472616e637947756172643a207265656e7472616e742063616c6c0060448201526064016102a4565b6002600055565b634e487b7160e01b600052604160045260246000fd5b600082601f8301126110b657600080fd5b813567ffffffffffffffff808211156110d1576110d161108f565b604051601f8301601f19908116603f011681019082821181831017156110f9576110f961108f565b8160405283815286602085880101111561111257600080fd5b836020870160208301376000602085830101528094505050505092915050565b6000806040838503121561114557600080fd5b82359150602083013567ffffffffffffffff81111561116357600080fd5b61116f858286016110a5565b9150509250929050565b80356001600160a01b038116811461119057600080fd5b919050565b600080604083850312156111a857600080fd5b6111b183611179565b946020939093013593505050565b60008060008060008060c087890312156111d857600080fd5b86359550602087013567ffffffffffffffff808211156111f757600080fd5b6112038a838b016110a5565b9650604089013591508082111561121957600080fd5b6112258a838b016110a5565b9550606089013594506080890135935060a089013591508082111561124957600080fd5b5061125689828a016110a5565b9150509295509295509295565b60006020828403121561127557600080fd5b61127e82611179565b9392505050565b6000815180845260005b818110156112ab5760208185018101518683018201520161128f565b506000602082860101526020601f19601f83011685010191505092915050565b86815260c0602082015260006112e460c0830188611285565b82810360408401526112f68188611285565b905085606084015284608084015282810360a08401526113168185611285565b9998505050505050505050565b60006020828403121561133557600080fd5b5035919050565b634e487b7160e01b600052603260045260246000fd5b634e487b7160e01b600052601160045260246000fd5b8181038181111561137b5761137b611352565b92915050565b8082018082111561137b5761137b611352565b6000600182016113a6576113a6611352565b5060010190565b6020808252601d908201527f416d6f756e74206d7573742062652067726561746572207468616e2030000000604082015260600190565b600181811c908216806113f857607f821691505b60208210810361141857634e487b7160e01b600052602260045260246000fd5b50919050565b601f82111561146457600081815260208120601f850160051c810160208610156114455750805b601f850160051c820191505b8181101561080e57828155600101611451565b505050565b815167ffffffffffffffff8111156114835761148361108f565b6114978161149184546113e4565b8461141e565b602080601f8311600181146114cc57600084156114b45750858301515b600019600386901b1c1916600185901b17855561080e565b600085815260208120601f198616915b828110156114fb578886015182559484019460019091019084016114dc565b50858210156115195787850151600019600388901b60f8161c191681555b5050505050600190811b01905550565b8381528260208201526060604082015260006115486060830184611285565b95945050505050565b8781526000602060e08184015261156b60e084018a611285565b838103604085015261157d818a611285565b905083810360608501528088548083528383019150838160051b84010160008b8152858120815b8481101561166c57601f198785030186528154845260018201548885015260028201608060408601528381546115d9816113e4565b80608089015260a060018316600081146115fa576001811461161457611641565b60ff1984168a83015282151560051b8a0182019450611641565b8589528d8920895b848110156116395781548c82018501526001909101908f0161161c565b8b0183019550505b50505050600384015460ff1615156060969096019590955250948701946004909101906001016115a4565b5050508960808801528860a088015286810360c088015261168d8189611285565b9e9d505050505050505050505050505056fea26469706673582212204a1052a413dcdfb22506443b666abc0c2d46c8be550caaf0a4722c6ad2be9bee64736f6c63430008150033",
  "devdoc": {
    "kind": "dev",
    "methods": {},
    "version": 1
  },
  "userdoc": {
    "kind": "user",
    "methods": {},
    "version": 1
  },
  "storageLayout": {
    "storage": [
      {
        "astId": 10,
        "contract": "contracts/adwumapa.sol:Adwumapa",
        "label": "_status",
        "offset": 0,
        "slot": "0",
        "type": "t_uint256"
      },
      {
        "astId": 89,
        "contract": "contracts/adwumapa.sol:Adwumapa",
        "label": "projects",
        "offset": 0,
        "slot": "1",
        "type": "t_mapping(t_address,t_struct(Project)84_storage)"
      },
      {
        "astId": 161,
        "contract": "contracts/adwumapa.sol:Adwumapa",
        "label": "clientBalances",
        "offset": 0,
        "slot": "2",
        "type": "t_mapping(t_address,t_uint256)"
      },
      {
        "astId": 165,
        "contract": "contracts/adwumapa.sol:Adwumapa",
        "label": "clientFreelancer",
        "offset": 0,
        "slot": "3",
        "type": "t_mapping(t_address,t_address)"
      },
      {
        "astId": 170,
        "contract": "contracts/adwumapa.sol:Adwumapa",
        "label": "clientMilestones",
        "offset": 0,
        "slot": "4",
        "type": "t_mapping(t_address,t_array(t_uint256)dyn_storage)"
      }
    ],
    "types": {
      "t_address": {
        "encoding": "inplace",
        "label": "address",
        "numberOfBytes": "20"
      },
      "t_array(t_struct(Milestone)67_storage)dyn_storage": {
        "base": "t_struct(Milestone)67_storage",
        "encoding": "dynamic_array",
        "label": "struct Adwumapa.Milestone[]",
        "numberOfBytes": "32"
      },
      "t_array(t_uint256)dyn_storage": {
        "base": "t_uint256",
        "encoding": "dynamic_array",
        "label": "uint256[]",
        "numberOfBytes": "32"
      },
      "t_bool": {
        "encoding": "inplace",
        "label": "bool",
        "numberOfBytes": "1"
      },
      "t_mapping(t_address,t_address)": {
        "encoding": "mapping",
        "key": "t_address",
        "label": "mapping(address => address)",
        "numberOfBytes": "32",
        "value": "t_address"
      },
      "t_mapping(t_address,t_array(t_uint256)dyn_storage)": {
        "encoding": "mapping",
        "key": "t_address",
        "label": "mapping(address => uint256[])",
        "numberOfBytes": "32",
        "value": "t_array(t_uint256)dyn_storage"
      },
      "t_mapping(t_address,t_struct(Project)84_storage)": {
        "encoding": "mapping",
        "key": "t_address",
        "label": "mapping(address => struct Adwumapa.Project)",
        "numberOfBytes": "32",
        "value": "t_struct(Project)84_storage"
      },
      "t_mapping(t_address,t_uint256)": {
        "encoding": "mapping",
        "key": "t_address",
        "label": "mapping(address => uint256)",
        "numberOfBytes": "32",
        "value": "t_uint256"
      },
      "t_string_storage": {
        "encoding": "bytes",
        "label": "string",
        "numberOfBytes": "32"
      },
      "t_struct(Milestone)67_storage": {
        "encoding": "inplace",
        "label": "struct Adwumapa.Milestone",
        "members": [
          {
            "astId": 60,
            "contract": "contracts/adwumapa.sol:Adwumapa",
            "label": "id",
            "offset": 0,
            "slot": "0",
            "type": "t_uint256"
          },
          {
            "astId": 62,
            "contract": "contracts/adwumapa.sol:Adwumapa",
            "label": "amount",
            "offset": 0,
            "slot": "1",
            "type": "t_uint256"
          },
          {
            "astId": 64,
            "contract": "contracts/adwumapa.sol:Adwumapa",
            "label": "description",
            "offset": 0,
            "slot": "2",
            "type": "t_string_storage"
          },
          {
            "astId": 66,
            "contract": "contracts/adwumapa.sol:Adwumapa",
            "label": "isCompleted",
            "offset": 0,
            "slot": "3",
            "type": "t_bool"
          }
        ],
        "numberOfBytes": "128"
      },
      "t_struct(Project)84_storage": {
        "encoding": "inplace",
        "label": "struct Adwumapa.Project",
        "members": [
          {
            "astId": 69,
            "contract": "contracts/adwumapa.sol:Adwumapa",
            "label": "amount",
            "offset": 0,
            "slot": "0",
            "type": "t_uint256"
          },
          {
            "astId": 71,
            "contract": "contracts/adwumapa.sol:Adwumapa",
            "label": "title",
            "offset": 0,
            "slot": "1",
            "type": "t_string_storage"
          },
          {
            "astId": 73,
            "contract": "contracts/adwumapa.sol:Adwumapa",
            "label": "description",
            "offset": 0,
            "slot": "2",
            "type": "t_string_storage"
          },
          {
            "astId": 77,
            "contract": "contracts/adwumapa.sol:Adwumapa",
            "label": "milestones",
            "offset": 0,
            "slot": "3",
            "type": "t_array(t_struct(Milestone)67_storage)dyn_storage"
          },
          {
            "astId": 79,
            "contract": "contracts/adwumapa.sol:Adwumapa",
            "label": "startDate",
            "offset": 0,
            "slot": "4",
            "type": "t_uint256"
          },
          {
            "astId": 81,
            "contract": "contracts/adwumapa.sol:Adwumapa",
            "label": "endDate",
            "offset": 0,
            "slot": "5",
            "type": "t_uint256"
          },
          {
            "astId": 83,
            "contract": "contracts/adwumapa.sol:Adwumapa",
            "label": "revisionPolicy",
            "offset": 0,
            "slot": "6",
            "type": "t_string_storage"
          }
        ],
        "numberOfBytes": "224"
      },
      "t_uint256": {
        "encoding": "inplace",
        "label": "uint256",
        "numberOfBytes": "32"
      }
    }
  }
}