{
  "address": "0xB16Ec0D24672A1e6937A5F2D378255A356372924",
  "abi": [
    {
      "inputs": [],
      "stateMutability": "nonpayable",
      "type": "constructor"
    },
    {
      "anonymous": false,
      "inputs": [
        {
          "indexed": true,
          "internalType": "address",
          "name": "sender",
          "type": "address"
        },
        {
          "indexed": false,
          "internalType": "uint256",
          "name": "amount",
          "type": "uint256"
        }
      ],
      "name": "Deposit",
      "type": "event"
    },
    {
      "anonymous": false,
      "inputs": [
        {
          "indexed": true,
          "internalType": "address",
          "name": "to",
          "type": "address"
        },
        {
          "indexed": false,
          "internalType": "uint256",
          "name": "amount",
          "type": "uint256"
        }
      ],
      "name": "EmergencyWithdrawal",
      "type": "event"
    },
    {
      "anonymous": false,
      "inputs": [
        {
          "indexed": true,
          "internalType": "address",
          "name": "client",
          "type": "address"
        },
        {
          "indexed": true,
          "internalType": "address",
          "name": "freelancer",
          "type": "address"
        },
        {
          "indexed": false,
          "internalType": "uint256",
          "name": "milestoneIndex",
          "type": "uint256"
        },
        {
          "indexed": false,
          "internalType": "uint256",
          "name": "amount",
          "type": "uint256"
        }
      ],
      "name": "MilestoneCompleted",
      "type": "event"
    },
    {
      "anonymous": false,
      "inputs": [
        {
          "indexed": true,
          "internalType": "address",
          "name": "previousOwner",
          "type": "address"
        },
        {
          "indexed": true,
          "internalType": "address",
          "name": "newOwner",
          "type": "address"
        }
      ],
      "name": "OwnershipTransferred",
      "type": "event"
    },
    {
      "anonymous": false,
      "inputs": [
        {
          "indexed": true,
          "internalType": "address",
          "name": "recipient",
          "type": "address"
        },
        {
          "indexed": false,
          "internalType": "uint256",
          "name": "amount",
          "type": "uint256"
        }
      ],
      "name": "PaymentProcessed",
      "type": "event"
    },
    {
      "anonymous": false,
      "inputs": [
        {
          "indexed": true,
          "internalType": "address",
          "name": "client",
          "type": "address"
        },
        {
          "indexed": true,
          "internalType": "address",
          "name": "freelancer",
          "type": "address"
        },
        {
          "indexed": false,
          "internalType": "uint256",
          "name": "amount",
          "type": "uint256"
        }
      ],
      "name": "PaymentReleased",
      "type": "event"
    },
    {
      "anonymous": false,
      "inputs": [
        {
          "indexed": true,
          "internalType": "address",
          "name": "recipient",
          "type": "address"
        },
        {
          "indexed": false,
          "internalType": "uint256",
          "name": "amount",
          "type": "uint256"
        }
      ],
      "name": "PaymentWithdrawn",
      "type": "event"
    },
    {
      "anonymous": false,
      "inputs": [
        {
          "indexed": true,
          "internalType": "address",
          "name": "client",
          "type": "address"
        },
        {
          "indexed": true,
          "internalType": "address",
          "name": "freelancer",
          "type": "address"
        },
        {
          "indexed": false,
          "internalType": "uint256",
          "name": "amount",
          "type": "uint256"
        }
      ],
      "name": "ProjectCompleted",
      "type": "event"
    },
    {
      "anonymous": false,
      "inputs": [
        {
          "indexed": true,
          "internalType": "address",
          "name": "client",
          "type": "address"
        },
        {
          "indexed": false,
          "internalType": "uint256",
          "name": "amount",
          "type": "uint256"
        },
        {
          "indexed": false,
          "internalType": "string",
          "name": "title",
          "type": "string"
        },
        {
          "indexed": false,
          "internalType": "string",
          "name": "description",
          "type": "string"
        },
        {
          "components": [
            {
              "internalType": "uint256",
              "name": "id",
              "type": "uint256"
            },
            {
              "internalType": "uint256",
              "name": "amount",
              "type": "uint256"
            },
            {
              "internalType": "string",
              "name": "description",
              "type": "string"
            }
          ],
          "indexed": false,
          "internalType": "struct Adwumapa.Milestone[]",
          "name": "milestones",
          "type": "tuple[]"
        },
        {
          "indexed": false,
          "internalType": "uint256",
          "name": "startDate",
          "type": "uint256"
        },
        {
          "indexed": false,
          "internalType": "uint256",
          "name": "endDate",
          "type": "uint256"
        },
        {
          "indexed": false,
          "internalType": "string",
          "name": "revisionPolicy",
          "type": "string"
        }
      ],
      "name": "ProjectCreated",
      "type": "event"
    },
    {
      "inputs": [
        {
          "internalType": "address",
          "name": "",
          "type": "address"
        }
      ],
      "name": "clientBalances",
      "outputs": [
        {
          "internalType": "uint256",
          "name": "",
          "type": "uint256"
        }
      ],
      "stateMutability": "view",
      "type": "function"
    },
    {
      "inputs": [
        {
          "internalType": "address",
          "name": "",
          "type": "address"
        }
      ],
      "name": "clientFreelancer",
      "outputs": [
        {
          "internalType": "address",
          "name": "",
          "type": "address"
        }
      ],
      "stateMutability": "view",
      "type": "function"
    },
    {
      "inputs": [
        {
          "internalType": "address",
          "name": "",
          "type": "address"
        },
        {
          "internalType": "uint256",
          "name": "",
          "type": "uint256"
        }
      ],
      "name": "clientMilestones",
      "outputs": [
        {
          "internalType": "uint256",
          "name": "",
          "type": "uint256"
        }
      ],
      "stateMutability": "view",
      "type": "function"
    },
    {
      "inputs": [
        {
          "internalType": "uint256",
          "name": "milestoneIndex",
          "type": "uint256"
        }
      ],
      "name": "completeMilestone",
      "outputs": [],
      "stateMutability": "nonpayable",
      "type": "function"
    },
    {
      "inputs": [],
      "name": "completeProject",
      "outputs": [],
      "stateMutability": "nonpayable",
      "type": "function"
    },
    {
      "inputs": [
        {
          "internalType": "uint256",
          "name": "amount",
          "type": "uint256"
        },
        {
          "internalType": "string",
          "name": "title",
          "type": "string"
        },
        {
          "internalType": "string",
          "name": "description",
          "type": "string"
        },
        {
          "components": [
            {
              "internalType": "uint256",
              "name": "id",
              "type": "uint256"
            },
            {
              "internalType": "uint256",
              "name": "amount",
              "type": "uint256"
            },
            {
              "internalType": "string",
              "name": "description",
              "type": "string"
            }
          ],
          "internalType": "struct Adwumapa.Milestone[]",
          "name": "milestones",
          "type": "tuple[]"
        },
        {
          "internalType": "uint256",
          "name": "startDate",
          "type": "uint256"
        },
        {
          "internalType": "uint256",
          "name": "endDate",
          "type": "uint256"
        },
        {
          "internalType": "string",
          "name": "revisionPolicy",
          "type": "string"
        }
      ],
      "name": "createProject",
      "outputs": [],
      "stateMutability": "payable",
      "type": "function"
    },
    {
      "inputs": [
        {
          "internalType": "address",
          "name": "freelancer",
          "type": "address"
        }
      ],
      "name": "deposit",
      "outputs": [],
      "stateMutability": "payable",
      "type": "function"
    },
    {
      "inputs": [
        {
          "internalType": "address",
          "name": "to",
          "type": "address"
        },
        {
          "internalType": "uint256",
          "name": "amount",
          "type": "uint256"
        }
      ],
      "name": "emergencyWithdraw",
      "outputs": [],
      "stateMutability": "nonpayable",
      "type": "function"
    },
    {
      "inputs": [],
      "name": "owner",
      "outputs": [
        {
          "internalType": "address",
          "name": "",
          "type": "address"
        }
      ],
      "stateMutability": "view",
      "type": "function"
    },
    {
      "inputs": [
        {
          "internalType": "address",
          "name": "recipient",
          "type": "address"
        },
        {
          "internalType": "uint256",
          "name": "amount",
          "type": "uint256"
        }
      ],
      "name": "processPayment",
      "outputs": [],
      "stateMutability": "nonpayable",
      "type": "function"
    },
    {
      "inputs": [
        {
          "internalType": "address",
          "name": "freelancer",
          "type": "address"
        },
        {
          "internalType": "uint256",
          "name": "amount",
          "type": "uint256"
        }
      ],
      "name": "releasePayment",
      "outputs": [],
      "stateMutability": "nonpayable",
      "type": "function"
    },
    {
      "inputs": [],
      "name": "renounceOwnership",
      "outputs": [],
      "stateMutability": "nonpayable",
      "type": "function"
    },
    {
      "inputs": [
        {
          "internalType": "address",
          "name": "newOwner",
          "type": "address"
        }
      ],
      "name": "transferOwnership",
      "outputs": [],
      "stateMutability": "nonpayable",
      "type": "function"
    },
    {
      "inputs": [
        {
          "internalType": "uint256",
          "name": "amount",
          "type": "uint256"
        }
      ],
      "name": "withdraw",
      "outputs": [],
      "stateMutability": "nonpayable",
      "type": "function"
    }
  ],
  "transactionHash": "0xbee4bf14356771722078fcd0faebe8258b9de920f667fc8f573d03fa695bc9f7",
  "args": [],
  "numDeployments": 3,
  "solcInputHash": "d1d96d8487eb0190c4767f05d3b49feb",
  "bytecode": "0x608060405234801561001057600080fd5b5061001a33610066565b60018055336100615760405162461bcd60e51b815260206004820152600f60248201526e496e76616c6964206164647265737360881b604482015260640160405180910390fd5b6100b6565b600080546001600160a01b038381166001600160a01b0319831681178455604051919092169283917f8be0079c531659141344cd1fd0a4f28419497f9722a3daafe3b4186f6b6457e09190a35050565b6113d4806100c56000396000f3fe6080604052600436106100dd5760003560e01c80638da5cb5b1161007f578063966ecf3b11610059578063966ecf3b14610254578063f2fde38b14610274578063f340fa0114610294578063fc0e9739146102a757600080fd5b80638da5cb5b146101cc5780638dd8dd92146101fe57806395ccea671461023457600080fd5b8063715018a6116100bb578063715018a61461015757806378e1b6f71461016c578063852ea2031461017f5780638c6e9d1c1461019f57600080fd5b80630b63fe95146100e25780632e1a7d4d146101045780635aaa1ee214610124575b600080fd5b3480156100ee57600080fd5b506101026100fd366004610ec9565b6102bc565b005b34801561011057600080fd5b5061010261011f366004610ef3565b6103d9565b34801561013057600080fd5b5061014461013f366004610ec9565b610487565b6040519081526020015b60405180910390f35b34801561016357600080fd5b506101026104b8565b61010261017a3660046110d3565b6104cc565b34801561018b57600080fd5b5061010261019a366004610ef3565b61067e565b3480156101ab57600080fd5b506101446101ba36600461119d565b60026020526000908152604090205481565b3480156101d857600080fd5b506000546001600160a01b03165b6040516001600160a01b03909116815260200161014e565b34801561020a57600080fd5b506101e661021936600461119d565b6003602052600090815260409020546001600160a01b031681565b34801561024057600080fd5b5061010261024f366004610ec9565b61083a565b34801561026057600080fd5b5061010261026f366004610ec9565b610946565b34801561028057600080fd5b5061010261028f36600461119d565b610a68565b6101026102a236600461119d565b610ade565b3480156102b357600080fd5b50610102610be5565b6102c4610daa565b6001600160a01b03821661031b5760405162461bcd60e51b8152602060048201526019602482015278496e76616c696420726563697069656e74206164647265737360381b60448201526064015b60405180910390fd5b6000811161033b5760405162461bcd60e51b8152600401610312906111bf565b8047101561035b5760405162461bcd60e51b8152600401610312906111f6565b6040516001600160a01b0383169082156108fc029083906000818181858888f19350505050158015610391573d6000803e3d6000fd5b50816001600160a01b03167fa5957fefb5b0f981554450d4d8dde003083cd202e3d5a2992e09c88ad1f0d791826040516103cd91815260200190565b60405180910390a25050565b6103e1610daa565b600081116104015760405162461bcd60e51b8152600401610312906111bf565b804710156104215760405162461bcd60e51b8152600401610312906111f6565b604051339082156108fc029083906000818181858888f1935050505015801561044e573d6000803e3d6000fd5b5060405181815233907f84511ecc081974f18e7f3e0dcc19db078b55bbd3852ddd0dd85b3aebb7bf94c29060200160405180910390a250565b600460205281600052604060002081815481106104a357600080fd5b90600052602060002001600091509150505481565b6104c0610daa565b6104ca6000610e04565b565b6104d4610e54565b600087116104f45760405162461bcd60e51b8152600401610312906111bf565b8634146105545760405162461bcd60e51b815260206004820152602860248201527f53656e742076616c7565206d757374206d61746368207468652070726f6a65636044820152671d08185b5bdd5b9d60c21b6064820152608401610312565b6000805b855181101561059e578581815181106105735761057361122d565b6020026020010151602001518261058a9190611259565b91508061059681611272565b915050610558565b508781146106015760405162461bcd60e51b815260206004820152602a60248201527f4d696c6573746f6e657320746f74616c206d757374206d617463682070726f6a6044820152691958dd08185b5bdd5b9d60b21b6064820152608401610312565b3360009081526002602052604081208054349290610620908490611259565b909155505060405133907fc3ad64307fa77da6c402e85e8ff48dbfec8be91471c088031a99f7a3ecc79a8290610663908b908b908b908b908b908b908b906112d1565b60405180910390a25061067560018055565b50505050505050565b610686610e54565b336000908152600360209081526040808320546004909252822080546001600160a01b039092169291849081106106bf576106bf61122d565b60009182526020909120015490506001600160a01b03821661071c5760405162461bcd60e51b8152602060048201526016602482015275139bc8199c99595b185b98d95c88185cdcda59db995960521b6044820152606401610312565b600081116107625760405162461bcd60e51b81526020600482015260136024820152724e6f2066756e647320746f2072656c6561736560681b6044820152606401610312565b804710156107825760405162461bcd60e51b8152600401610312906111f6565b3360009081526004602052604081208054859081106107a3576107a361122d565b60009182526020822001919091556040516001600160a01b0384169183156108fc02918491818181858888f193505050501580156107e5573d6000803e3d6000fd5b5060408051848152602081018390526001600160a01b0384169133917f517f5c7800b3ad7869f5240382ff5b27b4fb43c488aad1fe3874fa19b62fb0cc910160405180910390a3505061083760018055565b50565b610842610daa565b6001600160a01b0382166108945760405162461bcd60e51b8152602060048201526019602482015278496e76616c696420726563697069656e74206164647265737360381b6044820152606401610312565b600081116108b45760405162461bcd60e51b8152600401610312906111bf565b804710156108d45760405162461bcd60e51b8152600401610312906111f6565b6040516001600160a01b0383169082156108fc029083906000818181858888f1935050505015801561090a573d6000803e3d6000fd5b50816001600160a01b03167f23d6711a1d031134a36921253c75aa59e967d38e369ac625992824315e204f20826040516103cd91815260200190565b61094e610e54565b6001600160a01b0382166109a45760405162461bcd60e51b815260206004820152601a60248201527f496e76616c696420667265656c616e63657220616464726573730000000000006044820152606401610312565b600081116109c45760405162461bcd60e51b8152600401610312906111bf565b804710156109e45760405162461bcd60e51b8152600401610312906111f6565b6040516001600160a01b0383169082156108fc029083906000818181858888f19350505050158015610a1a573d6000803e3d6000fd5b506040518181526001600160a01b0383169033907f8ac5b3c2902b21b6bbb4d99ec195e28a242cb6a1777804db10b84d91e20064299060200160405180910390a3610a6460018055565b5050565b610a70610daa565b6001600160a01b038116610ad55760405162461bcd60e51b815260206004820152602660248201527f4f776e61626c653a206e6577206f776e657220697320746865207a65726f206160448201526564647265737360d01b6064820152608401610312565b61083781610e04565b610ae6610e54565b60003411610b065760405162461bcd60e51b8152600401610312906111bf565b6001600160a01b038116610b5c5760405162461bcd60e51b815260206004820152601a60248201527f496e76616c696420667265656c616e63657220616464726573730000000000006044820152606401610312565b3360009081526002602052604081208054349290610b7b908490611259565b90915550503360008181526003602090815260409182902080546001600160a01b0319166001600160a01b03861617905590513481527fe1fffcc4923d04b559f4d29a8bfc6cda04eb5b0d3c460751c2402c5c5cc9109c910160405180910390a261083760018055565b610bed610e54565b336000908152600360209081526040808320546002909252909120546001600160a01b039091169081610c5b5760405162461bcd60e51b8152602060048201526016602482015275139bc8199c99595b185b98d95c88185cdcda59db995960521b6044820152606401610312565b60008111610ca15760405162461bcd60e51b81526020600482015260136024820152724e6f2066756e647320746f2072656c6561736560681b6044820152606401610312565b80471015610cc15760405162461bcd60e51b8152600401610312906111f6565b336000908152600260209081526040808320839055600390915280822080546001600160a01b0319169055516001600160a01b0384169183156108fc02918491818181858888f19350505050158015610d1e573d6000803e3d6000fd5b506040518181526001600160a01b0383169033907f7fe4ff85792773156f00cea852020ab4b0005d70bd4231011a3b34dc519359109060200160405180910390a36040518181526001600160a01b0383169033907f8ac5b3c2902b21b6bbb4d99ec195e28a242cb6a1777804db10b84d91e20064299060200160405180910390a350506104ca60018055565b6000546001600160a01b031633146104ca5760405162461bcd60e51b815260206004820181905260248201527f4f776e61626c653a2063616c6c6572206973206e6f7420746865206f776e65726044820152606401610312565b600080546001600160a01b038381166001600160a01b0319831681178455604051919092169283917f8be0079c531659141344cd1fd0a4f28419497f9722a3daafe3b4186f6b6457e09190a35050565b600260015403610ea65760405162461bcd60e51b815260206004820152601f60248201527f5265656e7472616e637947756172643a207265656e7472616e742063616c6c006044820152606401610312565b6002600155565b80356001600160a01b0381168114610ec457600080fd5b919050565b60008060408385031215610edc57600080fd5b610ee583610ead565b946020939093013593505050565b600060208284031215610f0557600080fd5b5035919050565b634e487b7160e01b600052604160045260246000fd5b6040516060810167ffffffffffffffff81118282101715610f4557610f45610f0c565b60405290565b604051601f8201601f1916810167ffffffffffffffff81118282101715610f7457610f74610f0c565b604052919050565b600082601f830112610f8d57600080fd5b813567ffffffffffffffff811115610fa757610fa7610f0c565b610fba601f8201601f1916602001610f4b565b818152846020838601011115610fcf57600080fd5b816020850160208301376000918101602001919091529392505050565b600082601f830112610ffd57600080fd5b8135602067ffffffffffffffff8083111561101a5761101a610f0c565b8260051b611029838201610f4b565b938452858101830193838101908886111561104357600080fd5b84880192505b858310156110c7578235848111156110615760008081fd5b88016060818b03601f19018113156110795760008081fd5b611081610f22565b828801358152604080840135828a01529183013591878311156110a45760008081fd5b6110b28d8a85870101610f7c565b90820152845250509184019190840190611049565b98975050505050505050565b600080600080600080600060e0888a0312156110ee57600080fd5b87359650602088013567ffffffffffffffff8082111561110d57600080fd5b6111198b838c01610f7c565b975060408a013591508082111561112f57600080fd5b61113b8b838c01610f7c565b965060608a013591508082111561115157600080fd5b61115d8b838c01610fec565b955060808a0135945060a08a0135935060c08a013591508082111561118157600080fd5b5061118e8a828b01610f7c565b91505092959891949750929550565b6000602082840312156111af57600080fd5b6111b882610ead565b9392505050565b6020808252601d908201527f416d6f756e74206d7573742062652067726561746572207468616e2030000000604082015260600190565b6020808252601d908201527f496e73756666696369656e7420636f6e74726163742062616c616e6365000000604082015260600190565b634e487b7160e01b600052603260045260246000fd5b634e487b7160e01b600052601160045260246000fd5b8082018082111561126c5761126c611243565b92915050565b60006001820161128457611284611243565b5060010190565b6000815180845260005b818110156112b157602081850181015186830182015201611295565b506000602082860101526020601f19601f83011685010191505092915050565b8781526000602060e0818401526112eb60e084018a61128b565b6040848203818601526112fe828b61128b565b9150606085830381870152828a518085528585019150858160051b860101868d0160005b8381101561136957878303601f19018552815180518452898101518a8501528701518784018790526113568785018261128b565b958a019593505090880190600101611322565b50508b60808a01528a60a08a015288810360c08a0152611389818b61128b565b9750505050505050509897505050505050505056fea2646970667358221220e69a4dac4342e234c58e07d15e7fbb1d8c3443651f2777ee66783f72a695587364736f6c63430008150033",
  "devdoc": {
    "kind": "dev",
    "methods": {
      "owner()": {
        "details": "Returns the address of the current owner."
      },
      "renounceOwnership()": {
        "details": "Leaves the contract without owner. It will not be possible to call `onlyOwner` functions anymore. Can only be called by the current owner. NOTE: Renouncing ownership will leave the contract without an owner, thereby removing any functionality that is only available to the owner."
      },
      "transferOwnership(address)": {
        "details": "Transfers ownership of the contract to a new account (`newOwner`). Can only be called by the current owner."
      }
    },
    "version": 1
  },
  "userdoc": {
    "kind": "user",
    "methods": {},
    "version": 1
  },
  "storageLayout": {
    "storage": [
      {
        "astId": 7,
        "contract": "contracts/adwumapa.sol:Adwumapa",
        "label": "_owner",
        "offset": 0,
        "slot": "0",
        "type": "t_address"
      },
      {
        "astId": 123,
        "contract": "contracts/adwumapa.sol:Adwumapa",
        "label": "_status",
        "offset": 0,
        "slot": "1",
        "type": "t_uint256"
      },
      {
        "astId": 294,
        "contract": "contracts/adwumapa.sol:Adwumapa",
        "label": "clientBalances",
        "offset": 0,
        "slot": "2",
        "type": "t_mapping(t_address,t_uint256)"
      },
      {
        "astId": 298,
        "contract": "contracts/adwumapa.sol:Adwumapa",
        "label": "clientFreelancer",
        "offset": 0,
        "slot": "3",
        "type": "t_mapping(t_address,t_address)"
      },
      {
        "astId": 303,
        "contract": "contracts/adwumapa.sol:Adwumapa",
        "label": "clientMilestones",
        "offset": 0,
        "slot": "4",
        "type": "t_mapping(t_address,t_array(t_uint256)dyn_storage)"
      }
    ],
    "types": {
      "t_address": {
        "encoding": "inplace",
        "label": "address",
        "numberOfBytes": "20"
      },
      "t_array(t_uint256)dyn_storage": {
        "base": "t_uint256",
        "encoding": "dynamic_array",
        "label": "uint256[]",
        "numberOfBytes": "32"
      },
      "t_mapping(t_address,t_address)": {
        "encoding": "mapping",
        "key": "t_address",
        "label": "mapping(address => address)",
        "numberOfBytes": "32",
        "value": "t_address"
      },
      "t_mapping(t_address,t_array(t_uint256)dyn_storage)": {
        "encoding": "mapping",
        "key": "t_address",
        "label": "mapping(address => uint256[])",
        "numberOfBytes": "32",
        "value": "t_array(t_uint256)dyn_storage"
      },
      "t_mapping(t_address,t_uint256)": {
        "encoding": "mapping",
        "key": "t_address",
        "label": "mapping(address => uint256)",
        "numberOfBytes": "32",
        "value": "t_uint256"
      },
      "t_uint256": {
        "encoding": "inplace",
        "label": "uint256",
        "numberOfBytes": "32"
      }
    }
  }
}